:100000000C9420010C943F010C943F010C943F018F
:100010000C943F010C943F010C943F010C943F0160
:100020000C943F010C943F010C943F010C943F0150
:100030000C943F010C943F010C943F010C943F0140
:100040000C943F010C943F010C943F010C943F0130
:100050000C943F010C943F010C943F010C943F0120
:100060000C943F010C94142F0C943F010C943F010D
:100070000C943F010C9463020C943F010C943F01DB
:100080000C943F010C943F010C943F010C943F01F0
:100090000C946B2F0C943F010C943F010C94DA6A82
:1000A0000C943F010C943F010C943F010C943F01D0
:1000B0000C943F010C943F010C943F010C94BF4100
:1000C0000C943F010C943F010C943F010C943F01B0
:1000D0000C943F010C943F010C943F010C943F01A0
:1000E0000C943F010C943F010C943F010C94EA3AAC
:1000F0000C94F93A0C943F010C943F010C94AC3AE7
:100100000C943F010C943F010C943F010C943F016F
:100110000C943F010C943F010C943F010C943F015F
:1001200005A84CCDB2D44EB93836A9020C50B991BD
:100130008688083CA6AAAA2ABE000000803F6E61FD
:100140006E00696E660000407A10F35A00A0724E8D
:1001500018090010A5D4E80000E87648170000E46C
:100160000B54020000CA9A3B000000E1F5050000B4
:1001700080969800000040420F000000A086010019
:100180000000102700000000E803000000006400E9
:10019000000000000A000000000001000000000054
:1001A0002C76D888DC674F0823DFC1DFAE59E1B178
:1001B000B796E5E3E453C63AE651997696E8E6C287
:1001C0008426EB898C9B62ED407C6FFCEFBC9C9F8E
:1001D00040F2BAA56FA5F490055A2AF75C936B6CB0
:1001E000F9676DC11BFCE0E40D47FEF520E6B500A4
:1001F000D0ED902E0300943577050080841E080012
:1002000000204E0A000000C80C333333330F986EC1
:1002100012831141EF8D2114893BE65516CFFEE67E
:10022000DB18D1844B381BF77C1D901DA4BBE42444
:10023000203284725E228100C9F124ECA1E53D27C1
:1002400011241FBECFEFD1E4DEBFCDBF1DE0A0E083
:10025000B2E0E0EBF0E201E00BBF02C007900D92CC
:10026000AC34B107D9F71BE1ACE4BDE001C01D928D
:10027000A434B107E1F70E9499070C9456900C94AE
:10028000000008950895E82FF0E0E05CFE4F6083E1
:100290000895E82FF0E0E05CFE4F80810895E82F9C
:1002A000F0E0E05CFE4F80816823862F90E002C082
:1002B000959587954A95E2F70895E82FF0E0E05C80
:1002C000FE4F862F809590818923042E01C0220F36
:1002D0000A94EAF72623822B8083089587FD8FE70F
:1002E00080938001482F50E081E891E00C94438F87
:1002F000FF920F931F93CF93DF938A01F0907B01BE
:10030000F61608F46F2DC62FD0E0AE0160E871E05C
:100310000E94438FC058DE4F8881F80180838F2D63
:10032000DF91CF911F910F91FF900895FF920F934E
:100330001F93CF93DF938C01F62EEA01209751F0A3
:1003400047E060E886E00E944F0191E0813009F0CB
:1003500090E0988340E050E06F2DC801DF91CF918D
:100360001F910F91FF900C947801DF92EF92FF9212
:100370000F931F93CF93DF938C01D62E7A01E9015F
:10038000209751F047E060E886E00E944F0191E03D
:10039000813009F090E09883A7016D2DC801DF91AD
:1003A000CF911F910F91FF90EF90DF900C94780107
:1003B00080917B010895FA01282F30E0D901A60F22
:1003C000B11DA038B10514F06FE7681B462F50E04F
:1003D000BF01C90180589E4F0C94438F782FCA01EA
:1003E000272F30E0F901E60FF11DE038F10514F098
:1003F0006FE7671B462F50E0B90160587E4F0C94A1
:10040000438F6830710540F4FB01EE0FFF1FE80FCA
:10041000F91F80819181089580E090E00895CF9345
:10042000DF93EC0168307105D0F4FB01EE0FFF1F84
:10043000E80FF91F6081718180E090E00E94A58A39
:10044000288939894A895B890E94B78B20E030E08E
:1004500040E85AE30E94B78BDF91CF91089560E0A6
:1004600070E0CB01DF91CF9108958091600D8823DA
:1004700019F08CE49DE008950E9457320E949E314D
:10048000FC0180818230D1F08DEC9CECACECBFE3C0
:1004900020EC20937C0010927B002FEE20937A00BA
:1004A00080935C0D90935D0DA0935E0DB0935F0DF6
:1004B00081E08093600D8CE49DE0089580E090E001
:1004C000A0EABFE3E5CF1F920F920FB60F9211245F
:1004D0000BB60F921F932F933F934F935F936F939E
:1004E0007F938F939F93AF93BF93CF93DF93EF93BC
:1004F000FF9380910B028F5F80930B02833000F19A
:1005000010920B02D091780010917900C0910A02EC
:100510000E943502C83078F180910A028F5F8830DE
:1005200038F580930A0280917C00807E80937C0065
:1005300080917C0090910A02892B80937C0002C0FC
:10054000882301F3FF91EF91DF91CF91BF91AF919C
:100550009F918F917F916F915F914F913F912F91DB
:100560001F910F900BBE0F900FBE0F901F9018950C
:1005700010920A02D8CFEC2FF0E0EE0FFF1FE80F29
:10058000F91F13708D2F90E0912B918380838091C0
:100590000A028F5F883060F7C4CFDA011496ED91BC
:1005A000FC911597309739F0AB01BC0116968D91EF
:1005B0009C911797099408956115710529F021E020
:1005C00030E0DB012D933C93DA01ED91FC91119722
:1005D000309731F0682F12968D919C911397099561
:1005E00080E090E00895DC01ED91FC910480F581BC
:1005F000E02D09940C94354B0C949C4A0C94255096
:10060000CF93DF9300D0CDB7DEB79E012F5F3F4F72
:1006100008960E9405730F900F90DF91CF91089577
:100620000F931F9300E010E020E030E040E050E046
:1006300008960E94596F019619F01F910F91089525
:100640000E945B8E2F923F924F925F926F927F92A9
:100650008F929F92AF92BF92CF92DF92EF92FF92D2
:100660000F931F93CF93DF93CDB7DEB7C657D64016
:100670000FB6F894DEBF0FBECDBF6C015A01CE019C
:100680008B5C9C4F0E94438FCB5CDB4FA882C55391
:10069000D440D601CD90DC9081E091E0FE01EB5C8E
:1006A000FC4FDE01AC5CBD4F01900D920197E1F76C
:1006B0000E94AA73950133278E010F58194FAE017E
:1006C0004C5C5D4FBC01CE018D519A4F0E94FA7374
:1006D000CF58D94F88819981C157D640892B09F1CC
:1006E0000E9409314FEF50E060E00E94EC30CA58A0
:1006F000D94F0FB6F894DEBF0FBECDBFDF91CF91BB
:100700001F910F91FF90EF90DF90CF90BF90AF902F
:100710009F908F907F906F905F904F903F902F9021
:1007200008958CE8FE01ED51FA4FDE01A95ABA4F47
:1007300001900D928A95E1F7FE0131964F0182E317
:1007400091E0DF01FC011D923197E9F721E0C855E6
:10075000DF4F2883C85AD040C95ADA4F888199811F
:10076000AA81BB81C755D540C755DF4F8883998380
:10077000AA83BB83C95AD0402B83C55ADA4F8881DC
:100780009981CB55D5408130910509F480C08230E4
:10079000910509F441C0892B09F487C082E090E0FB
:1007A0009D838C832F8F83E090E099A388A39E0183
:1007B0002159394F5901CE018D5C9E4F3C010E9459
:1007C000AD7375018E010D5C1D4F20E031E0A3017A
:1007D000BC01C4010E94B073D5018D919C91892BFD
:1007E00009F07ECFCD5CDD4F4881C353D24050E04D
:1007F000D601ED91FC91309709F479CFB301D60180
:1008000012968D919C9113970995F50180819181A4
:10081000892B09F46CCF64CFC35ADA4F3881CD5598
:10082000D540332309F4BCCFC25ADA4F888199816D
:10083000AA81BB81CE55D540803CE3E29E07E3E729
:10084000AE07E0EDBE0709F44AC08330F4E19F072C
:10085000FCEAAF07FDEDBF0709F41AC18D399841D5
:10086000A94FBF4B09F462C034E020E0FE01E1591A
:10087000F94F5F01CE018D5C9E4F3C0182E090E01C
:100880009D838C8381E08F8F38A329A398CF82E04A
:1008900090E09D838C832F8FDE01A159B94F5D01BC
:1008A000FE01ED5CFE4F3F018ACF2E8383E090E096
:1008B000A0E0B0E08B879C87AD87BE8781E090E0A9
:1008C000A0E0B0E08F8B988FA98FBA8F82E090E084
:1008D000A0E0B0E08B8F9C8FAD8FBE8F68CFCE59DC
:1008E000DA4F4880C256D540512C0E9406895E01DD
:1008F000B1E9AB1AB9EFBB0A3E01EDEC6E1AEEEFAF
:100900007E0A8501920147E555E04C0F5D1F445F6B
:100910005F4FBC01C3010E94FA73D5018D919C9178
:10092000009709F4F5C0382F292FA8CFCE59DA4FF8
:100930004880C256D540512C0E9403895E01F1E9DE
:10094000AF1AF9EFBF0A3E012DEC621A2EEF720AC0
:100950008501920147E555E04C0F5D1F445F5F4FF5
:10096000BC01C3010E94FA73D5018D919C9100973F
:10097000D1F61E01BAEC2B1ABBEF3B0A83E9F30157
:10098000D10101900D928A95E1F78091160288239A
:1009900009F442C0F10185858823F1F14685578528
:1009A00060897189F60184819581A681B781481794
:1009B00059076A077B0781F14483558366837783F0
:1009C000CD58D94F4883C357D640CC58D94F5883B8
:1009D000C457D640CB58D94F6883C557D640CA585C
:1009E000D94F7883C657D6400E949641CD58D94FEB
:1009F0004881C357D640CC58D94F5881C457D640A8
:100A0000CB58D94F6881C557D640CA58D94F78813D
:100A1000C657D6400E94F940F10181859285A38591
:100A2000B48580389105A105B10508F4E8C083E0DC
:100A300090E0FE01E753FB4F2F01D2018D939C9371
:100A40000E940C8975018E01095D1F4F20E830E07E
:100A5000AE01485D5F4FBC01C2010E94B073F50159
:100A600080819181009709F05ECF83E090E09D83C3
:100A70008C8381E08AA3C25ADA4F88819981AA8146
:100A8000BB81CE55D5408BA39CA3ADA3BEA397CE6F
:100A9000CE59DA4F4880C256D540512C0E94008969
:100AA0005E0131E9A31A39EFB30A3E01ADEC6A1ACF
:100AB000AEEF7A0A8501920147E555E04C0F5D1FC4
:100AC000445F5F4FBC01C3010E94FA73F50180814E
:100AD0009181009709F027CF8CE0EFEEF3E0DE0183
:100AE000AA5CBB4F01900D928A95E1F70E9409899B
:100AF00075018E01095D1F4F20E830E0AE01485DB1
:100B00005F4FBC01CE018A5C9B4F0E94B073A7CFA0
:100B10002E01B7E34B1ABBEF5B0A8EE8F301D2015B
:100B200001900D928A95E1F780911602882309F4CD
:100B300042C0F20180858823F1F1418552856385A9
:100B40007485F60184819581A681B781481759077C
:100B50006A077B0781F14483558366837783CD5889
:100B6000D94F4883C357D640CC58D94F5883C45720
:100B7000D640CB58D94F6883C557D640CA58D94FAD
:100B80007883C657D6400E949641CD58D94F4881A8
:100B9000C357D640CC58D94F5881C457D640CB58AC
:100BA000D94F6881C557D640CA58D94F7881C657A2
:100BB000D6400E94F940F20184819581A681B781D7
:100BC00080389105A105B10508F444C083E090E0A8
:100BD000FE01EA5CFB4F1F01D1018D939C930E94A3
:100BE0000F8975018E01095D1F4F20E830E0AE01CD
:100BF000485D5F4FBC01C1010E94B07330CF2E0130
:100C0000F7E34F1AFBEF5F0AD10115968C91F201C1
:100C1000808783E090E09287818748E050E0B101CF
:100C2000C2010E94638FD20117961C920E949641C6
:100C3000DC01ED91FC919101235F3F4FD1011996A9
:100C40006C9160580190F081E02DA201099580E03F
:100C500090E0F3CE1E01FAEC2F1AFBEF3F0A88E07A
:100C6000EBEFF3E0D10101900D928A95E1F782E07C
:100C700090E0D1011A969C938E931997F20180818E
:100C800018968C930E949641DC01ED91FC919201A3
:100C9000285F3F4FD20114966C9160580190F0810B
:100CA000E02DA101099580E090E096CF4115510516
:100CB00009F408950C9422038091140280FD12C05F
:100CC0000E94093140E050E060E00E94EC308091E9
:100CD00014029091150201969093150280931402CC
:100CE00081E008950E9409314FEF50E060E00E94DA
:100CF000EC30EDCF0C945C06E1E6F0E080E8808318
:100D0000108278940E94093140E050E86FEF0E9411
:100D1000EC3008951F93CF93DF9300D000D000D024
:100D2000CDB7DEB71E821D820E9457320E94CA31A3
:100D3000FC01408151816281738141305105F2E0B3
:100D40006F07710508F06AC041155105610571050D
:100D500009F42CC02D813E8180E090E0DC01ABBF26
:100D6000FC0117913127032E0294E02DEF70E32749
:100D7000132F1025110F107EE127102D1327107F40
:100D80001695032E000C111F3695369536953F713A
:100D9000312732272E2F0196A11DB11D84179507EB
:100DA000A607B70709F0DBCF3E832D830E94573299
:100DB0000E94BF31FC01208131818D819E812817E5
:100DC000390701F10E9409314FEF50E060E00E94C5
:100DD000EC300E94573222E030E0AE014B5F5F4FB3
:100DE00066E274E00E94F93180911602811126C0FA
:100DF00026960FB6F894DEBF0FBECDBFDF91CF9120
:100E00001F91089580911602882381F00E94093174
:100E10004FEF5FEF6FEF0E94EC30EACF0E94093195
:100E20004FEF50E060E00E94EC30E2CF0E940931C9
:100E300040E05FEF6FEF0E94EC30DACF8AE796E098
:100E40009A8389831C821B820E9449422AEF30E0E8
:100E500040E050E0BE016F5F7F4F0E94E542C8CF87
:100E6000CF92DF92EF92FF920F931F93CF93DF9376
:100E7000CDB7DEB7C159D1090FB6F894DEBF0FBEAA
:100E8000CDBF8C017A01DC018C918823C1F1FE0178
:100E900031966F0186E8DF011D928A95E9F74138A6
:100EA0005105E8F5CE0107960E94438FEE82F801C6
:100EB0008485898345855685678570894A835B83E8
:100EC0006C837D838BE03196DE01A957BF4F019083
:100ED0000D928A95E1F781E8C157DF4F8883CF589B
:100EE000D0400E949641DC01ED91FC910190F0818F
:100EF000E02D9601AE0149575F4F60E00995CF564E
:100F0000DF4F0FB6F894DEBF0FBECDBFDF91CF919C
:100F10001F910F91FF90EF90DF90CF9008950E9466
:100F200009314FEF50E060E00E94EC30E8CF0C94C4
:100F30003007CF93DF93CDB7DEB7CF5CD5410FB687
:100F4000F894DEBF0FBECDBF0E947C060E94964182
:100F50000E9435020E94AA6A0E9443670E94EB6BBE
:100F60000E948A0620E034E843E050E061E070E04F
:100F7000CE018E5A9C4E0E94C22FCE018E5A9C4E9C
:100F80000E9443301A8219821C821B821E821D829B
:100F900018861F821D861C861F861E86CE01099616
:100FA0000E94A76E8E010F5F1F4FA8016DEC72E0CB
:100FB000CE0109960E941A6F98014CED52E060E054
:100FC00070E0CE0109960E94256FC45ADA4E19834B
:100FD0000883CC55D54180E193E0C65ADA4E998317
:100FE0008883CA55D54122E533E12C0F3D1F3C8350
:100FF0002B8383EF92E09A8389833093730E20933F
:10100000720E1093710D0093700DCE018E539A4E97
:10101000DC0114961D921D921D921C921797139637
:101020001C930E93129720E033E02D933C93FE0126
:10103000E253FA4E91838083F887EF8326E536E00A
:101040003E832D83C759DA4E19821882C956D5417D
:10105000C559DA4E19821882CB56D541C359DA4E9A
:1010600019821882CD56D541C159DA4E198218829B
:10107000CF56D541CF58DA4E19821882C157D54183
:10108000CD58DA4E19821882C357D541CB58DA4E63
:1010900019821882C557D541C958DA4E198218826B
:1010A000C757D541C758DA4E1882C957D541C658D7
:1010B000DA4E1882CA57D541C558DA4E1882CB5736
:1010C000D541C455DA4E1882CC5AD5418E0103550C
:1010D0001A4ED8011D9228E0EBEFF3E001900D923B
:1010E0002A95E1F7F801118622E030E03387228764
:1010F000148629E635E12C0F3D1F328B218B948B12
:10110000838B30936F0D20936E0D90936D0D8093B4
:101110006C0D10936B0D00936A0D0E949641DC01DB
:10112000ED91FC910480F581E02D27EE37E2C65366
:10113000DA4E39832883CA5CD541C453DA4E198309
:101140000883CC5CD541BE0166537A4E0995C559DA
:10115000DA4E19830883CB56D54187E997E0C75902
:10116000DA4E99838883C956D5410E945C4B7C0135
:101170000E94324BC159DA4E19830883CF56D541AC
:1011800029E03EE0C359DA4E39832883CD56D54154
:10119000CD58DA4E99838883C357D5418CEF92E0BE
:1011A000CF58DA4E99838883C157D541C958DA4E52
:1011B000F982E882C757D5418AEF92E0CB58DA4EE0
:1011C00099838883C557D541C653DA4E398328831E
:1011D000CA5CD541C453DA4E19830883CC5CD5412F
:1011E0000E94934AAE0146535A4E60E070E00E945E
:1011F000FD49CF58DA4E88819981C157D541C653F0
:10120000DA4E99838883CA5CD541CD58DA4E8881FD
:101210009981C357D541C453DA4E99838883CC5CF6
:10122000D5410E94934AAE0146535A4E61E070E0A8
:101230000E94FD49CB58DA4E88819981C557D54126
:10124000C653DA4E99838883CA5CD541C958DA4EB1
:1012500088819981C757D541C453DA4E99838883D1
:10126000CC5CD5410E94934AAE0146535A4E62E08F
:1012700070E00E94FD4980911602882309F48CC019
:1012800000E010E060C0CA5ADC4E28813981C655A2
:10129000D341C85ADC4E88819981C855D34128175B
:1012A000390709F454C04FB7F894CA5ADC4E288164
:1012B0003981C655D341C85ADC4E88819981C855B9
:1012C000D3412817390709F463C0CA5ADC4EE881B4
:1012D000F981C655D341F17022E533E12C0F3D1F52
:1012E000E20FF31F6085CA5ADC4E28813981C6554A
:1012F000D341C85ADC4E88819981C855D3412817FB
:10130000390709F447C0CA5ADC4E88819981C6550D
:10131000D34101969370CA5ADC4E99838883C6558F
:10132000D3414FBFC65ADA4EE881F981CA55D5413B
:10133000309739F0C45ADA4E88819981CC55D5411D
:1013400009950F5F1F4F043111050CF49CCF0E94CB
:101350009641DC01ED91FC910680F781E02D099525
:1013600080911602882379F00E9449420E942F43FF
:1013700080911602811184CF0E94934A0E942D4AC7
:1013800000E010E0E0CF0E944D490E949745ECCF6D
:101390006FEFC7CF0E945B8E0E949C522EEF32E00F
:1013A000C653DA4E39832883CA5CD541C453DA4E1A
:1013B00099838883CC5CD5410E9449422AE030E081
:1013C00040E050E0BE0166537A4E0E94E54258CF9D
:1013D0006F927F928F929F92AF92BF92CF92DF9245
:1013E000EF92FF920F931F93CF93DF93CDB7DEB7AA
:1013F000C554D2400FB6F894DEBF0FBECDBF3C013E
:10140000CA5CDD4F8882C653D240C95CDD4F9882EA
:10141000C753D240C85CDD4FA882C853D240C75CD6
:10142000DD4FB882C953D240C65CDD4FC882CA5373
:10143000D240C55CDD4FD882CB53D240C45CDD4F77
:10144000E882CC53D240C35CDD4FF882CD53D2400A
:10145000C25CDD4F0883CE53D240C15CDD4F1883A0
:10146000CF53D240C05CDD4F2883C054D240CF5B05
:10147000DD4F3883C154D240CE5BDD4F4883C25428
:10148000D240CD5BDD4F5883C354D240CC5BDD4F9F
:101490006883C454D240CB5BDD4F7883C554D240BF
:1014A0009E012F5F3F4F690182E391E0D901FC016A
:1014B0001D923197E9F781E090E09A83898381E07A
:1014C000C355DF4F8883CD5AD040E8E1F4E011E600
:1014D00020E030E0A90101C01191A5E6B0E00E9432
:1014E00015899B01AC01210F311D411D511D84E067
:1014F000E932F80789F7C255DF4F288339834A83D9
:101500005B83CE5AD040CC5CDD4F19821882C45325
:10151000D2400E94F788DE01AC5CBD4F7D018E0198
:101520000E541F4F20E830E0AE014D545F4FBC0118
:10153000CE018A5C9D4F0E94B073CC5CDD4F288148
:101540003981C453D24021153105B9F0C901CB5BB3
:10155000DD4F0FB6F894DEBF0FBECDBFDF91CF9148
:101560001F910F91FF90EF90DF90CF90BF90AF90C1
:101570009F908F907F906F9008950E94AD738E0121
:101580000D5C1D4F20E031E0AE014D5C5E4FBC01B3
:10159000C6010E94B073CC5CDD4F28813981C453F1
:1015A000D2402115310591F6CD5CDD4F4881C35302
:1015B000D24050E0D301ED91FC913097A1F0BE01F3
:1015C0006D5C7E4FD30112968D919C911397099576
:1015D000CC5CDD4F8881C453D240CB5CDD4F988119
:1015E000C553D240B4CF80E090E0B1CF2F923F926C
:1015F0004F925F926F927F928F929F92AF92BF9223
:10160000CF92DF92EF92FF920F931F93CF93DF93CE
:10161000CDB7DEB7A8970FB6F894DEBF0FBECDBF2B
:1016200098A38F8F0E94EB6B0E94436B69A37AA3F0
:101630008BA39CA3CB01ABA1BCA1898B9A8BAB8B59
:10164000BC8B0E94EB6B0E947B6B2B013C016D8B72
:101650007E8B8F8B988F0E94EB6B0E94B36B6DA378
:101660007EA38FA398A7698F7A8F8B8F9C8FEF8D26
:10167000F8A1FD96C080D180E280F3800F8D18A183
:101680001E0185E1280E311CDE015D96BE8FAD8FF7
:1016900089A19AA1ABA1BCA1BC01CD01F80121A9EE
:1016A00032A943A954A90E94A3894B015C0120E0FF
:1016B00030E0A9010E94088A87FD85C0C501B401F8
:1016C000A70196010E94B38B18167CF00C5F1F4F88
:1016D0008D8D9E8D2816390609F457C0D1016D9164
:1016E0007D918D919D911D01D9CF0E94494280919C
:1016F000250290912602A0912702B09128028983A9
:101700009A83AB83BC8389A19AA1ABA1BCA18D8331
:101710009E83AF83B88749865A866B867C868DA167
:101720009EA1AFA1B8A58D879E87AF87B88B1F926A
:101730001F9289809A80AB80BC80CD80DE80EF8054
:10174000F88409851A852B853C854D855E856F85D6
:1017500078898F8D98A10E94E80989A19AA1ABA1EF
:10176000BCA1EF8DF8A181AB92ABA3ABB4AB45AA02
:1017700056AA67AA70AE8DA19EA1AFA1B8A581AFF0
:1017800092AFA3AFB4AF0F900F90EF8DF8A1ED5BC8
:10179000FF4F8081A8960FB6F894DEBF0FBECDBF75
:1017A000DF91CF911F910F91FF90EF90DF90CF903D
:1017B000BF90AF909F908F907F906F905F904F9071
:1017C0003F902F900895C501B401905879CFAF9202
:1017D000BF92CF92DF92EF92FF920F931F93CF931E
:1017E000DF93CDB7DEB7CD53D2400FB6F894DEBF4E
:1017F0000FBECDBF5C01CA5CDD4F0883C653D2402B
:10180000C95CDD4F1883C753D240C85CDD4F2883C5
:10181000C853D240C75CDD4F3883C953D240C65C41
:10182000DD4F4883CA53D240C55CDD4F5883CB534C
:10183000D240C45CDD4F6883CC53D240C35CDD4FE3
:101840007883CD53D2409E012F5F3F4F690182E3E1
:1018500091E0D901FC011D923197E9F781E090E018
:101860009A83898381E0C355DF4F8883CD5AD04066
:10187000EBE2F4E012E620E030E0A90101C01191B2
:10188000A5E6B0E00E9415899B01AC01210F311D36
:10189000411D511D84E0E533F80789F7C255DF4F3C
:1018A000288339834A835B83CE5AD040CC5CDD4F9A
:1018B00019821882C453D2400E94F188DE01AC5CC8
:1018C000BD4F7D018E010E541F4F20E830E0AE0168
:1018D0004D545F4FBC01CE018A5C9D4F0E94B07396
:1018E000CC5CDD4F28813981C453D24021153105AC
:1018F00099F0C901C35CDD4F0FB6F894DEBF0FBE8F
:10190000CDBFDF91CF911F910F91FF90EF90DF90AE
:10191000CF90BF90AF9008950E94AD738E010D5C83
:101920001D4F20E031E0AE014D5C5E4FBC01C601B1
:101930000E94B073CC5CDD4F28813981C453D24002
:1019400021153105B1F6CD5CDD4F4881C353D2403E
:1019500050E0D501ED91FC913097A1F0BE016D5C96
:101960007E4FD50112968D919C9113970995CC5C71
:10197000DD4F8881C453D240CB5CDD4F9881C55385
:10198000D240B8CF80E090E0B5CFCF92DF92EF9217
:10199000FF920F931F93CF93DF93CDB7DEB72897B6
:1019A0000FB6F894DEBF0FBECDBF6C01162F0E949C
:1019B0004942409125025091260260912702709180
:1019C0002802042F49835A836B837C8392E0492F3A
:1019D0009D831E82812F90E0612F98878F83E12C59
:1019E000F12C1A812B813C8150E07885C6010E9440
:1019F000E70B28960FB6F894DEBF0FBECDBFDF9180
:101A0000CF911F910F91FF90EF90DF90CF900895AD
:101A1000CF92DF92EF92FF920F931F93CF93DF93BA
:101A2000CDB7DEB728970FB6F894DEBF0FBECDBF97
:101A30006C01162F0E9449424091250250912602C6
:101A40006091270270912802042F49835A836B8387
:101A50007C8391E0492F9D831E82812F90E0612F2E
:101A600098878F83E12CF12C1A812B813C8150E0E7
:101A70007885C6010E94E70B28960FB6F894DEBF62
:101A80000FBECDBFDF91CF911F910F91FF90EF90CF
:101A9000DF90CF900895AF92BF92CF92DF92EF92F6
:101AA000FF920F931F93CF93DF93CDB7DEB7C95348
:101AB000D2400FB6F894DEBF0FBECDBF5C01CA5C4A
:101AC000DD4F488359836A837B83C653D2409E018E
:101AD0002F5F3F4F690182E391E0D901FC011D9224
:101AE0003197E9F781E090E09A83898381E0C355DB
:101AF000DF4F8883CD5AD040E7E3F4E013E620E0DF
:101B000030E0A90101C01191A5E6B0E00E9415895D
:101B10009B01AC01210F311D411D511D84E0EA34B0
:101B2000F80789F7C255DF4F288339834A835B83DF
:101B3000CE5AD040CC5CDD4F19821882C453D240BB
:101B40000E94FD88DE01AC5CBD4F7D018E010E540C
:101B50001F4F20E830E0AE014D545F4FBC01CE0175
:101B60008A5C9D4F0E94B073CC5CDD4F2881398127
:101B7000C453D2402115310599F0C901C75CDD4F2E
:101B80000FB6F894DEBF0FBECDBFDF91CF911F918E
:101B90000F91FF90EF90DF90CF90BF90AF9008959E
:101BA0000E94AD738E010D5C1D4F20E031E0AE014F
:101BB0004D5C5E4FBC01C6010E94B073CC5CDD4F32
:101BC00028813981C453D24021153105B1F6CD5C4D
:101BD000DD4F4881C353D24050E0D501ED91FC91D7
:101BE0003097A1F0BE016D5C7E4FD50112968D91AC
:101BF0009C9113970995CC5CDD4F8881C453D240EA
:101C0000CB5CDD4F9881C553D240B8CF80E090E0E7
:101C1000B5CF0F931F93CF93DF9300D000D0CDB7F4
:101C2000DEB78C01662309F44FC00E9449424091FF
:101C3000250250912602609127027091280280911E
:101C4000100290911102A0911202B0911302481B50
:101C5000590B6A0B7B0B443F51406105710520F421
:101C6000F8018081811144C00E944942809125027F
:101C700090912602A0912702B09128028093100231
:101C800090931102A0931202B09313028EE99EE08A
:101C90009A8389831C830B830E94494220E436E0A7
:101CA00040E050E0BE016F5F7F4F0E94E54290939D
:101CB000690D8093680D0F900F900F900F90DF913A
:101CC000CF911F910F9108950091680D1091690DAA
:101CD0000E944942B8010E94E4410E94436724E601
:101CE00030E040E050E06CE573E40E94FA66E3CF38
:101CF0000E9449424091250250912602609127029C
:101D00007091280220E030E0F801818992890E94D8
:101D10004B0DF8011082809116028111A5CF0E940F
:101D20000931FC018081882309F49ECF0E9409318A
:101D300040E05FEF6FEF0E94EC3096CFCF93DF93E0
:101D4000EC018881811104C080E0DF91CF9108957A
:101D50000E9449424091250250912602609127023B
:101D60007091280220E030E089899A890E944B0D09
:101D70001882809116028111E7CF0E940931FC017F
:101D80008081882309F30E94093140E05FEF6FEF03
:101D90000E94EC30D9CFCF92DF92EF92FF920F9357
:101DA0001F93CF93DF93CDB7DEB728970FB6F89484
:101DB000DEBF0FBECDBF6C01662309F441C00E9497
:101DC000494240912502509126026091270270916C
:101DD000280280910C0290910D02A0910E02B09108
:101DE0000F02481B590B6A0B7B0B443F51406105A6
:101DF000710508F455C00E944942809125029091D6
:101E00002602A0912702B091280280930C029093A1
:101E10000D02A0930E02B0930F020E9449428091DE
:101E2000250290912602A0912702B0912802898371
:101E30009A83AB83BC831E821D8281E090E012C036
:101E40000E9449428091250290912602A09127028A
:101E5000B091280289839A83AB83BC831E821D8242
:101E600080E090E0682F8F839887E12CF12C098126
:101E70001A812B813C814D815E81792FC6010E94A0
:101E8000E70B28960FB6F894DEBF0FBECDBFDF91EB
:101E9000CF911F910F91FF90EF90DF90CF90089519
:101EA0000E944942409125025091260260912702EA
:101EB0007091280220E030E0C6010E944B0DE091B5
:101EC0006A0DF0916B0D1082809116028111D9CFAD
:101ED0000E940931FC018081882399F20E94093116
:101EE00040E05FEF6FEF0E94EC30CBCFAF92BF923C
:101EF000CF92DF92EF92FF920F931F93CF93DF93D6
:101F0000CDB7DEB7C154D2400FB6F894DEBF0FBED6
:101F1000CDBF5C01CA5CDD4FC882C653D240C95CEC
:101F2000DD4FD882C753D240C85CDD4FE882C8532A
:101F3000D240C75CDD4FF882C953D240C65CDD4F4A
:101F40000883CA53D240C55CDD4F1883CB53D240BF
:101F5000C45CDD4F2883CC53D240C35CDD4F388353
:101F6000CD53D240C25CDD4F4883CE53D240C15CDA
:101F7000DD4F5883CF53D240C05CDD4F6883C054DF
:101F8000D240CF5BDD4F7883C154D2409E012F5F9A
:101F90003F4F690182E391E0D901FC011D92319725
:101FA000E9F781E090E09A83898381E0C355DF4FB0
:101FB0008883CD5AD040ECE4F4E015E620E030E030
:101FC000A90101C01191A5E6B0E00E9415899B010D
:101FD000AC01210F311D411D511D84E0E735F8078B
:101FE00089F7C255DF4F288339834A835B83CE5AF2
:101FF000D040CC5CDD4F19821882C453D2400E947D
:10200000F488DE01AC5CBD4F7D018E010E541F4F84
:1020100020E830E0AE014D545F4FBC01CE018A5C38
:102020009D4F0E94B073CC5CDD4F28813981C45331
:10203000D2402115310599F0C901CF5BDD4F0FB6B4
:10204000F894DEBF0FBECDBFDF91CF911F910F91EE
:10205000FF90EF90DF90CF90BF90AF9008950E94D7
:10206000AD738E010D5C1D4F20E031E0AE014D5C83
:102070005E4FBC01C6010E94B073CC5CDD4F28816D
:102080003981C453D24021153105B1F6CD5CDD4F05
:102090004881C353D24050E0D501ED91FC91309777
:1020A000A1F0BE016D5C7E4FD50112968D919C9181
:1020B00013970995CC5CDD4F8881C453D240CB5C2B
:1020C000DD4F9881C553D240B8CF80E090E0B5CFC6
:1020D0004F925F926F927F928F929F92AF92BF9238
:1020E000CF92DF92EF92FF920F931F93CF93DF93E4
:1020F000CDB7DEB72C970FB6F894DEBF0FBECDBFBD
:102100004C010E944D4962E070E00E949F43762E90
:10211000472E582E692EF40125A536A547A550A9AE
:102120000E94A3896B017C0120E030E0A9010E949C
:10213000088AA701960187FD57C0F40161A172A129
:1021400083A194A10E94088A87FF35C00E9449425A
:102150008091250290912602A0912702B091280239
:10216000C82E89839A83AB83BC8382E0082F8D833A
:102170001E821F821886472D872D942DA52DB62DE2
:1021800089879A87AB87BC87A12CB12CDA80EB803A
:10219000FC8010E020E030E05A856B857C85C4012E
:1021A0000E94760F872D942DA52DB62DF40185A7BD
:1021B00096A7A7A7B0ABF40182892C960FB6F89426
:1021C000DEBF0FBECDBFDF91CF911F910F91FF906A
:1021D000EF90DF90CF90BF90AF909F908F907F90C7
:1021E0006F905F904F9008955058A7CF4F925F9295
:1021F0006F927F928F929F92AF92BF92CF92DF9217
:10220000EF92FF920F931F93CF93DF93CDB7DEB77B
:102210002C970FB6F894DEBF0FBECDBF4C010E94C5
:102220004D4961E070E00E949F43762E472E582E64
:10223000692EF40121A532A543A554A50E94A389C6
:102240006B017C0120E030E0A9010E94088AA7010F
:10225000960187FD57C0F401658D768D878D90A11D
:102260000E94088A87FF35C00E944942809125025A
:1022700090912602A0912702B0912802C82E89834E
:102280009A83AB83BC8381E0082F8D831E821F82DB
:102290001886472D872D942DA52DB62D89879A87D1
:1022A000AB87BC87A12CB12CDA80EB80FC8010E0DE
:1022B00020E030E05A856B857C85C4010E94760F52
:1022C000872D942DA52DB62DF40181A792A7A3A744
:1022D000B4A7F40181892C960FB6F894DEBF0FBE27
:1022E000CDBFDF91CF911F910F91FF90EF90DF90C5
:1022F000CF90BF90AF909F908F907F906F905F90A6
:102300004F9008955058A7CF4F925F926F927F924F
:102310008F929F92AF92BF92CF92DF92EF92FF92F5
:102320000F931F93CF93DF93CDB7DEB72C970FB6E4
:10233000F894DEBF0FBECDBF4C010E944D4960E056
:1023400070E00E949F43762E472E582E692EF4018E
:1023500025A136A147A150A50E94A3896B017C014C
:1023600020E030E0A9010E94088AA701960187FDBC
:1023700056C0F401618D728D838D948D0E94088A00
:1023800087FF34C00E944942809125029091260225
:10239000A0912702B0912802C82E89839A83AB832B
:1023A000BC831D821E821F821886472D872D942D87
:1023B000A52DB62D89879A87AB87BC87A12CB12C18
:1023C000DA80EB80FC8000E01E812F8138855A8501
:1023D0006B857C85C4010E94760F872D942DA52DD9
:1023E000B62DF40185A396A3A7A3B0A7F401808915
:1023F0002C960FB6F894DEBF0FBECDBFDF91CF9104
:102400001F910F91FF90EF90DF90CF90BF90AF9012
:102410009F908F907F906F905F904F90089550584D
:10242000A8CFAF92BF92CF92DF92EF92FF920F931D
:102430001F93CF93DF93CDB7DEB7CF53D2400FB604
:10244000F894DEBF0FBECDBF5C01CA5CDD4FE882F1
:10245000C653D240C95CDD4FF882C753D240C85C36
:10246000DD4F0883C853D240C75CDD4F1883C95382
:10247000D240C65CDD4F2883CA53D240C55CDD4FD5
:102480003883CB53D240C45CDD4F4883CC53D24019
:10249000C35CDD4F5883CD53D240C25CDD4F6883AF
:1024A000CE53D240C15CDD4F7883CF53D2409E01E2
:1024B0002F5F3F4F690182E391E0D901FC011D923A
:1024C0003197E9F781E090E09A83898381E0C355F1
:1024D000DF4F8883CD5AD040E9E5F4E01AE620E0EA
:1024E00030E0A90101C01191A5E6B0E00E94158974
:1024F0009B01AC01210F311D411D511D84E0E236CD
:10250000F80789F7C255DF4F288339834A835B83F5
:10251000CE5AD040CC5CDD4F19821882C453D240D1
:102520000E94FA88DE01AC5CBD4F7D018E010E5425
:102530001F4F20E830E0AE014D545F4FBC01CE018B
:102540008A5C9D4F0E94B073CC5CDD4F288139813D
:10255000C453D2402115310599F0C901C15CDD4F4A
:102560000FB6F894DEBF0FBECDBFDF91CF911F91A4
:102570000F91FF90EF90DF90CF90BF90AF900895B4
:102580000E94AD738E010D5C1D4F20E031E0AE0165
:102590004D5C5E4FBC01C6010E94B073CC5CDD4F48
:1025A00028813981C453D24021153105B1F6CD5C63
:1025B000DD4F4881C353D24050E0D501ED91FC91ED
:1025C0003097A1F0BE016D5C7E4FD50112968D91C2
:1025D0009C9113970995CC5CDD4F8881C453D24000
:1025E000CB5CDD4F9881C553D240B8CF80E090E0FE
:1025F000B5CFAF92BF92CF92DF92EF92FF920F933F
:102600001F93CF93DF93CDB7DEB72C970FB6F89417
:10261000DEBF0FBECDBF5C018B014B875C870E9484
:1026200049428091250290912602A0912702B09103
:102630002802E82E89839A83AB83BC83222717FD67
:102640002095322F802F0D831E832F8338874B8553
:10265000642F49875C855A87C12CD12CFA800B8165
:102660001C81282F3E814F8158857A85C5010E94A3
:1026700011122C960FB6F894DEBF0FBECDBFDF91BE
:10268000CF911F910F91FF90EF90DF90CF90BF906F
:10269000AF9008952F923F924F925F926F927F92E8
:1026A0008F929F92AF92BF92CF92DF92EF92FF9262
:1026B0000F931F93CF93DF93CDB7DEB7C15FD540A4
:1026C0000FB6F894DEBF0FBECDBF5C014B012701F2
:1026D0001601243860EA360762EC460763E65607BF
:1026E00011F40C94D81E08F476C0253EA5EA3A07EA
:1026F000A9EE4A07ABEB5A0709F400C408F0D5C0AD
:102700002B3FE3E43E07E9E84E07E5E85E0711F4F6
:102710000C94461F08F024C22B3868EC360764E19D
:1027200046076CE6560711F40C94AE1F10F40C9497
:10273000591C243A9AE1390791EB49079CE659075D
:1027400009F456C4263F3548434E5C4611F00C94BC
:102750004E1ED801CD907D01D12C0E941F88810191
:102760009601A701BC01C5010E94FA73F1018081A5
:102770009181892B09F07CC30E946E6560E070E056
:102780000E943965AA2797FDA095BA2F8A839B835B
:10279000AC83BD830E946E6561E070E00E94396584
:1027A000AA2797FDA095BA2F8E839F83A887B98704
:1027B0000E946E6562E070E00E943965AA2797FD6D
:1027C000A095BA2F8A879B87AC87BD8783E08983D2
:1027D0000E949788B8C1243D8DE6380788E84807ED
:1027E0008AE3580711F40C94152108F0E7C0293842
:1027F000AAE03A07A1E44A07ABE15A0711F40C94A6
:102800005F2108F093C22631E9E23E07E2E24E077B
:10281000E7E05E0711F40C94112008F446C5253159
:102820007DED370776ED47077BE0570709F4C6C310
:10283000293D3C40424B5F4011F00C944E1ED801A4
:10284000CD907D01D12C0E942E8881019601A70197
:10285000BC01C5010E94FA73F10180819181892B2D
:1028600009F006C30E946E6560E070E00E94D164CA
:102870006A837B838C839D830E946E6561E070E038
:102880000E94D1646E837F83888799870E946E65DA
:1028900062E070E00E94D1646A877B878C879D87A5
:1028A00083E089830E94A6884EC1203880E13807E2
:1028B00087E948078EED580711F40C94B22008F40C
:1028C00008C1243B71E2370777EE4707570711F439
:1028D0000C941A2208F0A9C2243995EC39079DEF0F
:1028E00049079FED590709F4DBC325393348474CA5
:1028F000524E11F00C944E1EF801C1907F01D12C64
:102900000E94468881019601A701BC01C5010E9471
:10291000FA73D1018D919C91892B09F0A9C23201E2
:10292000BFEF6B1A7B0A85E8F501DE01A75EBD4F9C
:1029300001900D928A95E1F7F501C080D180E28087
:10294000F380A12CB12C00E010E088248394912C1A
:10295000C454DA4F79826882CC5BD540C054DA4FD8
:1029600059824882C05CD540C401002E02C0880F45
:10297000991F0A94E2F7AA2797FDA095BA2F8C21F8
:102980009D21AE21BF21892B8A2B8B2B11F00C941A
:10299000D5230F5F1F4F0330110531F7C454DA4FB1
:1029A00068807980CC5BD540C054DA4F488059802C
:1029B000C05CD54019820E94BE88ADC1283E60EF40
:1029C000360768EC460761E5560711F40C94E921D7
:1029D00008F018C1263C88E2380780EF480781E4F8
:1029E000580711F40C947A2010F40C947A1D2F34AB
:1029F000B3EE3B07B1EE4B07B2E45B0709F4C4C387
:102A0000273D3F474A43574411F00C944E1EF801AE
:102A1000C1907F01D12C0E944C8881019601A701B1
:102A2000BC01C5010E94FA73D1018D919C91892B43
:102A300009F01EC23201BFEF6B1A7B0A85E8F5016F
:102A4000DE01A15FBE4F01900D928A95E1F7F5017D
:102A5000C080D180E280F380A12CB12C00E010E096
:102A600088248394912CC454DA4F79826882CC5B99
:102A7000D540C054DA4F59824882C05CD540C40169
:102A8000002E02C0880F991F0A94E2F7AA2797FD2B
:102A9000A095BA2F8C219D21AE21BF21892B8A2B95
:102AA0008B2B11F00C9488230F5F1F4F03301105FF
:102AB00031F7C454DA4F68807980CC5BD540C0547C
:102AC000DA4F48805980C05CD54019820E94C48882
:102AD00022C12835A5ED3A07A3E84A07ADEB5A070E
:102AE00011F40C94442008F453C72135F4E03F0757
:102AF000FBE84F07F6EC5F0709F418C323303441B5
:102B00004C4A5D4D11F00C944E1ED801CD907D01C4
:102B1000D12C0E945E8881019601A701BC01C501EC
:102B20000E94FA73F10180819181892B09F0A0C183
:102B30008CE0E3E0F4E0DE01119601900D928A95BD
:102B4000E1F70E94D688A2014F5F5F4F71018201B9
:102B500020E830E0BC01CE0101960E94B07388C12C
:102B60002F3DB7EA3B07BAE04B07B6E95B0711F424
:102B70000C94AB1E08F482C7213369E7360768E47A
:102B8000460768EA560709F441C32F36354B4849D2
:102B9000504B11F00C944E1ED801CD907D01D12CDC
:102BA0000E94318881019601A701BC01C5010E94E4
:102BB000FA73F10180819181892B09F059C10E943A
:102BC0006E6560E070E00E94F5646A837B838C83AD
:102BD0009D830E946E6561E070E00E94F5646E83E3
:102BE0007F83888799870E946E6562E070E00E940B
:102BF000F5646A877B878C879D8783E089830E9441
:102C0000A988A1CF2F31FEE83F07FFEB4F07FAE578
:102C10005F0711F40C94541E08F4DFC7283180E9D3
:102C2000380789E9480783E6580709F41DC32138A6
:102C3000304A424C534611F00C944E1EF801C1909C
:102C40007F01D12C0E94408881019601A701BC011F
:102C5000C5010E94FA73D1018D919C91892B09F0D5
:102C600007C13201BFEF6B1A7B0AFE01ED5DFC4F1D
:102C7000C054DA4FF983E883C05CD54085E8F5019C
:102C8000C054DA4FA881B981C05CD54001900D9243
:102C90008A95E1F7D501CD90DD90ED90FC90A12CC7
:102CA000B12C00E010E088248394912CC454DA4FB6
:102CB00079826882CC5BD540CC53DA4F5982488206
:102CC000C45CD540C401002E02C0880F991F0A942D
:102CD000E2F7AA2797FDA095BA2F8C219D21AE215E
:102CE000BF21892B8A2B8B2B11F00C9407230F5FAC
:102CF0001F4F0330110531F7C454DA4F68807980D3
:102D0000CC5BD540CC53DA4F48805980C45CD54069
:102D100019820E94B8887101820120E830E0A30185
:102D2000BC01CE0101960E94B073A2C0211591ECA6
:102D3000390794EF490791E2590711F40C94801F69
:102D400008F462C6213BECE33E07E1EF4E07E1E306
:102D50005E0709F4A7C0253D3B414744524309F0B3
:102D60009DC7D801CD907D01D12C0E94168881018C
:102D70009601A701BC01C5010E94FA73F10180818F
:102D80009181892B09F074C06201FFEFCF1ADF0A2D
:102D9000D5018C9181110C94FF25D40114968D914D
:102DA0009C9115979A83898316968D919C9117977C
:102DB0009C838B830E94934AFE0131965F01AF0191
:102DC00060E070E00E94FD49D40118968D919C91BD
:102DD00019979A8389831A968D919C911B979C834E
:102DE0008B830E94934AA50161E070E00E94FD4937
:102DF000F401848595859A838983868597859C834C
:102E00008B830E94934AA50162E070E00E94FD4915
:102E100019820E948E887101820120E830E0A601AB
:102E2000BC01C5010E94B07323C0283FBFE23B072D
:102E3000BAEE4B07B8EE5B0709F496C0283A37475D
:102E4000464B5D4F09F02AC7F801C1907F01D12C94
:102E50000E94528881019601A701BC01C5010E9410
:102E6000FA73D1018D919C91892B11F40C947722E6
:102E7000CF50DA4F0FB6F894DEBF0FBECDBFDF9153
:102E8000CF911F910F91FF90EF90DF90CF90BF9067
:102E9000AF909F908F907F906F905F904F903F90FA
:102EA0002F900895D801CD907D01D12C0E941C88CF
:102EB00081019601A701BC01C5010E94FA73F101CD
:102EC00080819181892BA1F66201FFEFCF1ADF0A81
:102ED000D5018C9181110C94EF251A8219821C82E4
:102EE0001B820E949C529E012F5F3F4F5901B901E6
:102EF0000E94364F19820E9494888DCFD801CD90C0
:102F00007D01D12C0E94288881019601A701BC0176
:102F1000C5010E94FA73F10180819181892B09F02A
:102F2000A7CF0E946E6560E070E00E94AD646A8386
:102F30007B838C839D830E946E6561E070E00E94BC
:102F4000AD646E837F83888799870E946E6562E097
:102F500070E00E94AD646A877B878C879D8783E0E1
:102F600089830E94A088EFCDD801CD907D01D12C1E
:102F70000E946D8881019601A701BC01C5010E94D4
:102F8000FA73F10180819181892B09F071CFD5010C
:102F90001496FC9014971596EC9015970D911C9132
:102FA0000E9457322F2D3E2DAE014E5F5F4FB8016C
:102FB0000E942331F9820E94E588C5CDD801CD90C9
:102FC0007D01D12C0E945B8881019601A701BC0183
:102FD000C5010E94FA73F10180819181892B09F06A
:102FE00047CF19821A821B821C820E94D388ABCDE4
:102FF000D801CD907D01D12C0E9458888101960185
:10300000A701BC01C5010E94FA73F1018081918181
:10301000892B09F02DCF6201FFEFCF1ADF0A0E9442
:1030200049428091250290912602A0912702B091F9
:10303000280289839A83AB83BC833E0126E0620E1B
:10304000711C00E010E088248394912C44E0A42EAD
:10305000B12C52E0E52EF12C0E949C52B8010E9446
:10306000794F8130910511F40C94122514F40C94CD
:10307000A5228230910511F40C940D25039719F4C3
:10308000F301B182A0820F5F1F4FF2E06F0E711C3F
:103090000330110509F783E08D830E94D088ABC00F
:1030A000F801C1907F01D12C0E940A88810196010C
:1030B000A701BC01C5010E94FA73D1018D919C91B9
:1030C000892B09F0D5CEF501C080D180E280F38054
:1030D000A701662777278D2C9E2CAF2CBB24C651C9
:1030E000DA4F4883CA5ED540C551DA4F5883CB5E6C
:1030F000D540C451DA4F6883CC5ED540C751DA4F12
:103100007883C95ED5400E940931C651DA4F4881A3
:10311000CA5ED540582D6C2D0E94EC300E940931BA
:10312000DC011C9219820E9482880DCDF801C190A9
:103130007F01D12C0E944F8881019601A701BC011B
:10314000C5010E94FA73D1018D919C91892B09F0E0
:103150008FCE0E94394D0E94350260E070E00E94DF
:103160000F0226E636E646E850E40E94B78B20E0E0
:1031700030E040EC5FE30E940C8A69837A838B83A2
:103180009C830E94C788DFCCF801C1907F01D12CBD
:103190000E94648881019601A701BC01C5010E94BB
:1031A000FA73D1018D919C91892B09F061CE620156
:1031B000BFEFCB1ADB0A0E944D497C0100E010E012
:1031C0000E949C52B8010E94304F0E949C5240E0E5
:1031D00050E0B8010E94CE4E0F5F1F4F0330110523
:1031E00079F7F701BD9686E0DF011D928A95E9F730
:1031F00019820E94DC887101820120E830E0A6017A
:10320000BC01CE0101960E94B07332CED801CD90A0
:103210007D01D12C0E94018881019601A701BC018A
:10322000C5010E94FA73F10180819181892B09F017
:103230001FCE0E94EB6B0E94436B69837A838B8362
:103240009C830E94EB6B0E947B6B6D837E838F83DC
:1032500098870E94EB6B0E94B36B69877A878B8794
:103260009C870E9479886FCCF801C1907F01D12C96
:103270000E940D8881019601A701BC01C5010E9431
:10328000FA73D1018D919C91892B09F0F1CD0E94A7
:103290004367FC0181819281A381B48189839A83F0
:1032A000AB83BC830E9485884ECC233E3041434C87
:1032B000564009F0F3C4D801CD907D01D12C0E9475
:1032C000618881019601A701BC01C5010E94FA73C2
:1032D000F10180819181892B09F0CACD92012F5F84
:1032E0003F4FC852DA4F39832883C85DD540D50196
:1032F00011960D90BC91A02DC051DA4FB983A883CF
:10330000C05FD540D50113966D907D908D909C90B7
:103310001697C053DA4F688279828A829B82C05D99
:10332000D5401796BC91C253DA4FB883CE5CD540D6
:10333000F5010084F185E02DC951DA4FF983E88366
:10334000C75ED540D5011A96BC91CA51DA4FB883F1
:10335000C65ED540F5014385548565857685F7853C
:10336000C453DA4FF883CC5CD540D50150960D900C
:10337000BC91A02DC352DA4FB983A883CD5DD5404F
:10338000F501F289C152DA4FF883CF5DD540D501FE
:1033900053960D90BC91A02DC653DA4FB983A883E4
:1033A000CA5CD540F501C588D688E788F08CF18DD8
:1033B000C652DA4FF883CA5DD540D5015A960D90B2
:1033C000BC91A02DC552DA4FB983A883CB5DD540FF
:1033D000F501F48DCA53DA4FF883C65CD540F50188
:1033E000858D968DA78DB0A1F1A1C853DA4FF883D2
:1033F000C85CD540F50102A0F3A1E02DCC52DA4F14
:10340000F983E883C45DD540F501F4A1C251DA4FD8
:10341000F883CE5ED540F50105A0F6A1E02DCC5392
:10342000DA4FF983E883C45CD540F50107A110A504
:1034300021A532A5F3A5CB51DA4FF883C55ED5405F
:10344000F50104A4F5A5E02DC054DA4FF983E88313
:10345000C05CD540F501F6A5C454DA4FF883CC5BC7
:10346000D540F50167A470A881A892A8CF51DA4F82
:10347000688279828A829B82C15ED540F3A9C0525C
:10348000DA4FF883C05ED540F50164A875A8F081D5
:10349000C151DA4FF883CF5ED540C35DDB4FF8836F
:1034A000CD52D440C152DA4F8880CF5DD540C25D45
:1034B000DB4F8882CE52D440C251DA4F9880CE5E24
:1034C000D540C15DDB4F9882CF52D440C051DA4F16
:1034D000A880B980C05FD540C75EDD4FB982A882A1
:1034E000C951D240C653DA4FE881F981CA5CD54050
:1034F000C55EDD4FF983E883CB51D240CC53DA4F20
:1035000088809980C45CD540C35EDD4F99828882F3
:10351000CD51D240C053DA4F88809980AA80BB80B9
:10352000C05DD540C657DF4F88829982AA82BB8290
:10353000CA58D040C257DF4FC882D982EA82FB8284
:10354000CE58D040CE56DF4F088319832A833B8361
:10355000C259D0409E0128553C4FCC53DA4F398395
:103560002883C45CD540C253DA4F8880CE5CD540F6
:10357000F9018082C652DA4F9880CA5DD5409182A7
:10358000CB51DA4FA880C55ED540A282C951DA4F2F
:1035900028813981C75ED540CC56DE4F39832883D8
:1035A000C459D140C552DA4FE881F981CB5DD5408D
:1035B000CA56DE4FF983E883C659D140C054DA4F6A
:1035C00088809980C05CD540C856DE4F9982888239
:1035D000C859D1409E012D5D3C4FC054DA4F39830C
:1035E0002883C05CD540CA51DA4F8880C65ED5407A
:1035F000F9018082CA53DA4F9880C65CD540918227
:10360000C454DA4FA880CC5BD540A28249835A8348
:103610006B837C838D839E83AF83B887CF51DA4FD2
:10362000288139814A815B81C15ED54029873A87EB
:103630004B875C87AE0142565D4FC454DA4F5983C5
:103640004883CC5BD540C453DA4FE881CC5CD5408D
:10365000DA01EC93C853DA4FF881C85CD540119673
:10366000FC931197C052DA4F8880C05ED540129605
:103670008C92C352DA4FA880B980CD5DD540C15F2E
:10368000DE4FB982A882CF50D140CC52DA4F288188
:103690003981C45DD540CF5EDE4F39832883C15167
:1036A000D140CD5EDE4F79826882C351D1404DE278
:1036B00054E04C0F5D1F4F5F5F4FC853DA4F598383
:1036C0004883C85CD540BE01615F7E4FCA53DA4F64
:1036D00079836883C65CD540CE0101965C018E017A
:1036E000075E1D4FDE01A657BF4F6D01FE01EC5670
:1036F000FE4F4F01612C712CC151DA4FE881CF5E32
:10370000D540C453DA4F59824882CC5CD5402B0156
:10371000C253DA4F39822882CE5CD5401801C0539B
:10372000DA4F99838883C05DD540EE2309F49AC0AF
:10373000CC53DA4FE881F981C45CD540E60DF71D22
:103740008081882311F40C940625D4018D919C91DD
:10375000C054DA4FE881F981C05CD540E60DF71D11
:103760002081CA53DA4F2883C65CD540211106C098
:10377000D5011D921D921D921C921397C454DA4FCD
:10378000E881F981CC5BD540E60DF71DB081C653C9
:10379000DA4FB883CA5CD540B11105C021E030E0F2
:1037A000F201318320838230910511F40C942B2691
:1037B00014F40C9441258330910511F40C946E2679
:1037C000049709F047C0D5012D913D914D915C9131
:1037D000CC52DA4F288339834A835B83C45DD5405A
:1037E000F6012081318142815381C351DA4F288310
:1037F000CD5ED540C751DA4F3883C95ED540C6513A
:10380000DA4F4883CA5ED540C551DA4F5883CB5E44
:10381000D5400E949C52CC52DA4FE880F9800A8150
:103820001B81C45DD540C351DA4F2881CD5ED540A0
:10383000C751DA4F3881C95ED540C651DA4F488149
:10384000CA5ED540C551DA4F5881CB5ED540B30131
:103850000E943E52CA53DA4FF881C65CD540F1113E
:103860000C948825BFEF6B1A7B0AE2E04E0E511CC8
:10387000F4E0AF0EB11C22E0220E311C34E0C30E86
:10388000D11C42E0840E911C53E06516710409F4CA
:1038900009C6C853DA4FA881B981C85CD540ED91FB
:1038A000C853DA4FB983A883C85CD540EE23D1F260
:1038B0003FCF22303041474D544609F0EFC1D80187
:1038C000CD907D01D12C0E94378881019601A701FE
:1038D000BC01C5010E94FA73F10180819181892B9D
:1038E00009F0C6CA92012F5F3F4FC454DA4F3983A3
:1038F0002883CC5BD54085E8F501DE01AE54BB4F93
:1039000001900D928A95E1F7D5018D909D90AD9033
:10391000BC90C12CD12C00E010E0EE24E394F12CFB
:10392000C054DA4F59824882C05CD540C701002E8E
:1039300002C0880F991F0A94E2F7AA2797FDA09565
:10394000BA2F88219921AA21BB21892B8A2B8B2B65
:1039500009F0AAC60F5F1F4F0330110539F7C05495
:10396000DA4F48805980C05CD54019820E94AF88E8
:103970007101820120E830E0C454DA4F4881598156
:10398000CC5BD540BC01CE0101960E94B07370CAD9
:10399000283E354A494E5B4B09F080C1D801CD9095
:1039A0007D01D12C0E94258881019601A701BC01CF
:1039B000C5010E94FA73F10180819181892B09F080
:1039C00057CA0E946E6560E070E00E9489646A8355
:1039D0007B838C839D830E946E6561E070E00E9412
:1039E00089646E837F83888799870E946E6562E011
:1039F00070E00E9489646A877B878C879D8783E05B
:103A000089830E949D889FC82A3E3A4E4543504272
:103A100009F044C1D801CD907D01D12C0E940488C9
:103A200081019601A701BC01C5010E94FA73F10151
:103A300080819181892B09F01BCA6201FFEFCF1AA7
:103A4000DF0A7E0122E0E20EF11C00E010E00E949D
:103A50003502B8010E940102A0E0B0E0F7018193B5
:103A60009193A193B1937F010F5F1F4F0830110510
:103A700071F788E089830E947C88BDCB2B3B3C4654
:103A80004E4B5B4809F00AC1D801CD907D01D12C85
:103A90000E94348881019601A701BC01C5010E94E2
:103AA000FA73F10180819181892B09F0E1C90E94AB
:103AB0006E6560E070E00E9419656A837B838C8389
:103AC0009D830E946E6561E070E00E9419656E83BF
:103AD0007F83888799870E946E6562E070E00E940C
:103AE00019656A877B878C879D8783E089830E941D
:103AF000AC8829C82233394B4041514409F0CEC02B
:103B0000F801C1907F01D12C0E9443888101960168
:103B1000A701BC01C5010E94FA73D1018D919C914E
:103B2000892B09F0A5C93201BFEF6B1A7B0AFE0190
:103B3000E256FD4FC454DA4FF983E883CC5BD5409D
:103B400085E8F501C454DA4FA881B981CC5BD54032
:103B500001900D928A95E1F7D501CD90DD90ED9021
:103B6000FC90A12CB12C00E010E088248394912CCF
:103B7000C054DA4F79826882C05CD540CC53DA4FAA
:103B800059824882C45CD540C401002E02C0880F0F
:103B9000991F0A94E2F7AA2797FDA095BA2F8C21C6
:103BA0009D21AE21BF21892B8A2B8B2B09F0E3C4E9
:103BB0000F5F1F4F0330110539F7C054DA4F68808B
:103BC0007980C05CD540CC53DA4F48805980C45CC2
:103BD000D54019820E94BB889EC82F37344D46427B
:103BE000534509F05BC0D801CD907D01D12C0E94D6
:103BF000768881019601A701BC01C5010E94FA7374
:103C0000F10180819181892B09F032C94201FFEFD6
:103C10008F1A9F0A89E8F501DE01119601900D9235
:103C20008A95E1F79E0126573F4F690159013FEF01
:103C3000A31AB30AED8029856981C351DA4F28831D
:103C4000CD5ED540C451DA4F6883CC5ED5400E942A
:103C5000AA6A8501C351DA4F2881CD5ED540AE01F5
:103C6000465F5F4FC451DA4F6881CC5ED5400E94F9
:103C7000596A892BF9F60E94AA6A0E94966A8D8178
:103C8000D6018C930E94EE887101820120E830E019
:103C9000A401BC01C6010E94B073EAC884E090E0B0
:103CA000F10191838083E4C8F801C1907F01D12C98
:103CB0000E94708881019601A701BC01C5010E9484
:103CC000FA73D1018D919C91892B09F0D1C84201E1
:103CD000BFEF8B1A9B0A6E01EAE8CE0ED11C85E875
:103CE000F501D60101900D928A95E1F786010B5FEF
:103CF0001F4FD60114962C9114976C91C351DA4F33
:103D00002883CD5ED540C451DA4F6883CC5ED54060
:103D10000E94AA6AC351DA4F2881CD5ED540A8011E
:103D2000C451DA4F6881CC5ED5400E940D6A892B60
:103D300001F70E94AA6A0E94966A19820E94E88886
:103D40007101820120E830E0A401BC01CE0101969E
:103D50000E94B0738DC8F801C1907F01D12C0E94E0
:103D6000558881019601A701BC01C5010E94FA7323
:103D7000D1018D919C91892B09F07AC86201BFEF26
:103D8000CB1ADB0A0E94394DFC018185928503978D
:103D90008330910508F020C7FC01EE0FFF1FE958A2
:103DA000FB4F808191819A8389830E94CD8823CAA9
:103DB000F801C1907F01D12C0E943D8881019601BC
:103DC000A701BC01C5010E94FA73D1018D919C919C
:103DD000892B09F04DC83201BFEF6B1A7B0AFE0137
:103DE000E855FC4FCC53DA4FF983E883C45CD540E7
:103DF00085E8F501CC53DA4FA881B981C45CD54080
:103E000001900D928A95E1F7D501CD90DD90ED906E
:103E1000FC90A12CB12C00E010E088248394912C1C
:103E2000C454DA4F79826882CC5BD540C054DA4FF3
:103E300059824882C05CD540C401002E02C0880F60
:103E4000991F0A94E2F7AA2797FDA095BA2F8C2113
:103E50009D21AE21BF21892B8A2B8B2B09F0F2C427
:103E60000F5F1F4F0330110539F7C454DA4F6880D4
:103E70007980CC5BD540C054DA4F48805980C05C13
:103E8000D54019820E94B5880C948B16D801CD902C
:103E90007D01D12C0E946A8881019601A701BC0195
:103EA000C5010E94FA73F10180819181892B11F083
:103EB0000C94381785E8F501DE01A95CBA4F019032
:103EC0000D928A95E1F7C55CDA4FE880CB53D54077
:103ED000F12CC95CDA4F08811981C753D5400E9483
:103EE000573247E355E04C0F5D1F4B5F5F4F970123
:103EF000B8010E94F93119820E94E2880C94A3153E
:103F0000F801C1907F01D12C0E9473888101960134
:103F1000A701BC01C5010E94FA73D1018D919C914A
:103F2000892B11F00C9438176201BFEFCB1ADB0A12
:103F3000F501148100810E94AA6A212FAE014E5F13
:103F40005F4F602F0E94306A892BA9F70E94AA6AEE
:103F50000E94966A19830E94EB884DC9F801C190AE
:103F60007F01D12C0E94498881019601A701BC01E3
:103F7000C5010E94FA73D1018D919C91892B11F09A
:103F80000C9438173201BFEF6B1A7B0A85E8F501F4
:103F9000DE01AC56BE4F01900D928A95E1F7F50116
:103FA000C080D180E280F380A12CB12C00E010E031
:103FB00088248394912CC454DA4F79826882CC5B34
:103FC000D540C054DA4F59824882C05CD540C40104
:103FD000002E02C0880F991F0A94E2F7AA2797FDC6
:103FE000A095BA2F8C219D21AE21BF21892B8A2B30
:103FF0008B2B09F0BFC40F5F1F4F0330110539F73A
:10400000C454DA4F68807980CC5BD540C054DA4F15
:1040100048805980C05CD54019820E94C1880C94A8
:104020008B16F801C1907F01D12C0E946788810115
:104030009601A701BC01C5010E94FA73D1018D91BF
:104040009C91892B11F00C9438176201BFEFCB1AA9
:10405000DB0AF501E1808081882309F4E8C4F12CB2
:1040600000E010E0C701002E02C0959587950A94E4
:10407000E2F780FD73C20F5F1F4F0330110591F708
:1040800019820E94DF88B7C8F801C1907F01D12C46
:104090000E94138881019601A701BC01C5010E94FD
:1040A000FA73D1018D919C91892B11F00C943817E2
:1040B0006201BFEFCB1ADB0AF50181819281A381F6
:1040C000B4812081F401211165C5EF5BFF4F0081B0
:1040D00011810E944942B8010E94E441F401ED5B64
:1040E000FF4F1082CE0101965C0119820E948B88DD
:1040F0000C940B17D801CD907D01D12C0E942B88F8
:1041000081019601A701BC01C5010E94FA73F1016A
:1041100080819181892B11F00C9438170E946E6573
:1041200060E070E00E9466646A837B838C839D8379
:104130000E946E6561E070E00E9466646E837F831A
:10414000888799870E946E6562E070E00E946664CD
:104150006A877B878C879D8783E089830E94A388F9
:104160000C94A315F801C1907F01D12C0E943A88CC
:1041700081019601A701BC01C5010E94FA73D1011A
:104180008D919C91892B11F00C9438173201BFEF5F
:104190006B1A7B0A85E8F501DE01A35DBB4F019038
:1041A0000D928A95E1F7F501C080D180E280F3801D
:1041B000A12CB12C00E010E088248394912CC454ED
:1041C000DA4F79826882CC5BD540C054DA4F59828D
:1041D0004882C05CD540C401002E02C0880F991FE0
:1041E0000A94E2F7AA2797FDA095BA2F8C219D216A
:1041F000AE21BF21892B8A2B8B2B09F06FC30F5F58
:104200001F4F0330110539F7C454DA4F68807980A5
:10421000CC5BD540C054DA4F48805980C05CD54053
:1042200019820E94B2880C948B16D801CD907D0122
:10423000D12C0E94108881019601A701BC01C50103
:104240000E94FA73F10180819181892B11F00C9405
:104250003817D5014D915D916D917C91C651DA4F22
:104260004883CA5ED540C551DA4F5883CB5ED540EE
:10427000C451DA4F6883CC5ED540C751DA4F78839A
:10428000C95ED5400E944367C651DA4F4881CA5E75
:10429000D540C551DA4F5881CB5ED540C451DA4F75
:1042A0006881CC5ED540C751DA4F7881C95ED54070
:1042B0000E94A86619820E9488880C94A315D801D0
:1042C000CD907D01D12C0E94198881019601A70112
:1042D000BC01C5010E94FA73F10180819181892B93
:1042E00011F00C9438176201FFEFCF1ADF0AD501E5
:1042F00011963C91119712968D919D910D90BC91C4
:10430000A02DF5010681E780408551856285738582
:10431000C054DA4F488359836A837B83C05CD5409D
:104320001485F5844685578560897189C454DA4FB0
:10433000488359836A837B83CC5BD54020812111DC
:104340007AC39E012F5F3F4F5901002369F1D401C9
:10435000EE2009F42BC599961D921D921D921C9278
:104360009C97C054DA4F288139814A815B81C05CB7
:10437000D5405D962D933D934D935C93909781E04E
:1043800051968C9386EF90E19A8389839C828B82ED
:104390000E94494224E630E040E050E0B5010E942E
:1043A000E542F401968B858B112371F0D401F11055
:1043B00009C557960D911C9158970E944942B80122
:1043C0000E94E441F401128A19820E9491880C949F
:1043D0000B17D801CD907D01D12C0E940788810157
:1043E0009601A701BC01C5010E94FA73F101808109
:1043F0009181892B11F00C9438170E940931DC014E
:1044000011962C91119712963C91129713964C91FC
:10441000832F90E0A0E0B0E0BA2FA92F982F882733
:10442000A22B842B89839A83AB83BC830E947F88D1
:104430000C94A315D801CD907D01D12C0E94228827
:1044400081019601A701BC01C5010E94FA73F10127
:1044500080819181892B11F00C9438170E946E6530
:1044600060E070E00E9459656A837B838C839D8342
:104470000E946E6561E070E00E9459656E837F83E3
:10448000888799870E946E6562E070E00E94596596
:104490006A877B878C879D8783E089830E949A88BF
:1044A0000C94A315C453DA4F48805980CC5CD54096
:1044B000C253DA4F28803980CE5CD540C053DA4FE2
:1044C000A880B980C05DD54019820E94D988710149
:1044D000820120E830E0C852DA4F48815981C85D36
:1044E000D540BC01C5010E94B0730C94381762011D
:1044F000BFEFCB1ADB0A0E944942809125029091BE
:104500002602A0912702B091280289839A83AB8367
:10451000BC837E01E6E0EE0EF11C00E010E00E949C
:104520004D49B8010E949F43D7016D937D938D93B0
:104530009D937D010F5F1F4F0330110581F783E0CD
:104540008D830E94CA880C94FB18892B11F00C945F
:104550004318D301ED92FC920C9443180E949C5294
:10456000B8010E94304F0E949C5240E050E0B801D8
:104570000E94CE4E80CDF501EE0FFF1FEE0FFF1F04
:10458000C454DA4F68807980CC5BD540E60DF71DC6
:1045900045805680678070840E946E65A3019201F9
:1045A000B8010E9457640E949C529801220F331F49
:1045B000820F931FDC018D919C91892B21F1C351B6
:1045C000DA4F2883CD5ED540C751DA4F3883C95EB4
:1045D000D5400E949C52C351DA4F2881CD5ED54010
:1045E000C751DA4F3881C95ED540820F931FFC0155
:1045F00080819181DC01ED91FC910484F585E02DB1
:10460000B301A2010995BFEFAB1ABB0AD1CAF501EC
:10461000EE0FFF1FEE0FFF1FC054DA4F6880798046
:10462000C05CD540E60DF71D4580568067807084DC
:104630000E946E65A3019201B8010E949D640E94D0
:104640009C529801220F331F820F931FDC018D9122
:104650009C91892B21F1C351DA4F2883CD5ED5403F
:10466000C751DA4F3883C95ED5400E949C52C3516E
:10467000DA4F2881CD5ED540C751DA4F3881C95E07
:10468000D540820F931FFC0180819181DC01ED9167
:10469000FC910088F189E02DB301A2010995BFEFDB
:1046A000AB1ABB0A0C947716F601EE0FFF1FEE0F44
:1046B000FF1F72EB672E74E0772E6C0E7D1EE60DE9
:1046C000F71D458056800E946E65A201B8010E94C8
:1046D0002D650E949C523801660C771C860D971D33
:1046E000DC018D919C91892B79F00E949C52860D62
:1046F000971DFC0180819181DC01ED91FC91008C82
:10470000F18DE02DB2010995BFEFCB1ADB0A22C96A
:10471000F501EE0FFF1FEE0FFF1FAFE06A2E7724AB
:1047200073946C0E7D1EE60DF71D458056806780E4
:1047300070840E946E65A3019201B8010E94096510
:104740000E949C529801220F331F820F931FDC019D
:104750008D919C91892B21F1C351DA4F2883CD5E35
:10476000D540C751DA4F3883C95ED5400E949C526C
:10477000C351DA4F2881CD5ED540C751DA4F388119
:10478000C95ED540820F931FFC0180819181DC01BD
:10479000ED91FC910688F789E02DB301A2010995FE
:1047A000BFEFAB1ABB0A0C945415F501EE0FFF1FB7
:1047B000EE0FFF1F79E1672E72E0772E6C0E7D1EE3
:1047C000E60DF71D45805680678070840E946E65F7
:1047D000A3019201B8010E94C1640E949C529801F9
:1047E000220F331F820F931FDC018D919C91892B27
:1047F00021F1C351DA4F2883CD5ED540C751DA4F3E
:104800003883C95ED5400E949C52C351DA4F28813B
:10481000CD5ED540C751DA4F3881C95ED540820F91
:10482000931FFC0180819181DC01ED91FC91028854
:10483000F389E02DB301A2010995BFEFAB1ABB0AC2
:104840000C94C914F501EE0FFF1FEE0FFF1FCC53A0
:10485000DA4F68807980C45CD540E60DF71D45804D
:104860005680678070840E946E65A3019201B80132
:104870000E9479640E949C529801220F331F820F7C
:10488000931FDC018D919C91892B21F1C351DA4F4B
:104890002883CD5ED540C751DA4F3883C95ED540F5
:1048A0000E949C52C351DA4F2881CD5ED540C7513A
:1048B000DA4F3881C95ED540820F931FFC01808199
:1048C0009181DC01ED91FC910684F785E02DB30127
:1048D000A2010995BFEFAB1ABB0AC2CAF501EE0FE0
:1048E000FF1FEE0FFF1FBDE26B2EB4E07B2E6C0EA0
:1048F0007D1EE60DF71D45805680678070840E94FE
:104900006E65A3019201B8010E9448650E949C5205
:104910009801220F331F820F931FDC018D919C9110
:10492000892B21F1C351DA4F2883CD5ED540C75181
:10493000DA4F3883C95ED5400E949C52C351DA4F8A
:104940002881CD5ED540C751DA4F3881C95ED54048
:10495000820F931FFC0180819181DC01ED91FC911C
:10496000028CF38DE02DB301A2010995BFEFAB1AC4
:10497000BB0A45CCF501EE0FFF1FEE0FFF1F24E928
:10498000622E772473946C0E7D1EE60DF71D458014
:104990005680678070840E946E65A3019201B80101
:1049A0000E94E5640E949C529801220F331F820FDF
:1049B000931FDC018D919C91892B21F1C351DA4F1A
:1049C0002883CD5ED540C751DA4F3883C95ED540C4
:1049D0000E949C52C351DA4F2881CD5ED540C75109
:1049E000DA4F3881C95ED540820F931FFC01808168
:1049F0009181DC01ED91FC910488F589E02DB301F2
:104A0000A2010995BFEFAB1ABB0AF5CA82E090E09C
:104A1000F401918380830C94A81BF301918280821E
:104A20000C944318D3011D921C920C94431887E0F8
:104A3000E82EF12C15CBF401332309F4A9C115A2FA
:104A400016A217A210A6818F928FA38FB48F81E038
:104A5000808B84E891E19A8389839C828B820E9477
:104A6000494224E630E040E050E0BE016F5F7F4FF6
:104A70005B010E94E542D40154969C938E93539718
:104A800064CC019711F00C942A1CD1018D919C915A
:104A90008230910509F461C28330910509F42AC27C
:104AA000019711F00C942A1CF6012081318142817A
:104AB0005381C351DA4F2883CD5ED540C751DA4FB9
:104AC0003883C95ED540C651DA4F4883CA5ED540A7
:104AD000C551DA4F5883CB5ED5400E949C52C351DA
:104AE000DA4F2881CD5ED540C751DA4F3881C95E93
:104AF000D540C651DA4F4881CA5ED540C551DA4F1C
:104B00005881CB5ED540B3010E94A24F0C942A1C61
:104B10000E949C52F301EE0FFF1FE80FF91F008166
:104B200011810115110511F40C94321CD801ED907E
:104B3000FC9020E030E04AE754E4F50160817181A7
:104B4000828193810E94B78B0E94798AAB01BC015C
:104B5000D7019296ED91FC919397C8010995C653A0
:104B6000DA4FB881CA5CD540BB2311F40C94321CD7
:104B7000F20180819181D801ED91FC9104A0F5A111
:104B8000E02D019709F41DC261E070E0C8010995AC
:104B90000C94321CFD9680839183A283B383F4012D
:104BA000ED5BFF4F81E0808386EF9AE09A838983F3
:104BB0009C828B820E94494224E630E040E050E033
:104BC000BE016F5F7F4F5B010E94E542F401EF5B26
:104BD000FF4F9183808389CA80E090E0E4C889EF29
:104BE00092E19A8389839C828B820E949C52FE016F
:104BF00031965F01BF010E94364F0C947A178BECFF
:104C00009EE09A8389839C828B820E94934AFE0154
:104C100031965F01AF0160E070E00E94FD4988E0DD
:104C20009DE09A8389839C828B820E94934AA5018E
:104C300061E070E00E94FD4985EC9CE09A838983E5
:104C40009C828B820E94934AA50162E070E00E94E0
:104C5000FD490C940817D1018D919C9182309105EA
:104C600009F414C18330910509F4DCC0019711F0F7
:104C70000C942A1CF6012081318142815381C35159
:104C8000DA4F2883CD5ED540C751DA4F3883C95EED
:104C9000D540C651DA4F4883CA5ED540C551DA4F78
:104CA0005883CB5ED5400E949C52C351DA4F288175
:104CB000CD5ED540C751DA4F3881C95ED540C65167
:104CC000DA4F4881CA5ED540C551DA4F5881CB5E74
:104CD000D540B3010E94F7500C942A1CD1018D914C
:104CE0009C918130910509F497C0029711F00C94C2
:104CF0002A1CD6012D913D914D915C91CC52DA4FF9
:104D0000288339834A835B83C45DD5400E944D4923
:104D1000B3010E949F439B01AC01CC52DA4F6881E2
:104D200079818A819B81C45DD5400E94A4899B01C1
:104D3000AC01C351DA4F2883CD5ED540C751DA4F5D
:104D40003883C95ED540C651DA4F4883CA5ED54024
:104D5000C551DA4F5883CB5ED5400E949C52C35157
:104D6000DA4F2881CD5ED540C751DA4F3881C95E10
:104D7000D540C651DA4F4881CA5ED540C551DA4F99
:104D80005881CB5ED540B3010E94F9510C942A1C86
:104D9000A388B4880E944942B5010E94E441D4012D
:104DA00050961C92FE0131965F01CFCA55966D90C8
:104DB0007C9056970E944942B3010E94E441F4015D
:104DC000118AF2CA9D961D921D921D921C92D09737
:104DD000C454DA4F288139814A815B81CC5BD5404C
:104DE00091962D933D934D935C93949781E05296C9
:104DF0008C9388E690E19A8389839C828B820E94BF
:104E0000494224E630E040E050E0B5010E94E5422E
:104E1000F401908F878BD8CAF601208131814281BD
:104E2000538187CFF6012081318142815381C35163
:104E3000DA4F2883CD5ED540C751DA4F3883C95E3B
:104E4000D540C651DA4F4883CA5ED540C551DA4FC6
:104E50005883CB5ED5400E949C52C351DA4F2881C3
:104E6000CD5ED540C751DA4F3881C95ED540C651B5
:104E7000DA4F4881CA5ED540C551DA4F5881CB5EC2
:104E8000D540B3010E94B4510C942A1CD6012D9137
:104E90003D914D915C91C351DA4F2883CD5ED54051
:104EA000C751DA4F3883C95ED540C651DA4F4883BF
:104EB000CA5ED540C551DA4F5883CB5ED5400E94BB
:104EC0009C52C351DA4F2881CD5ED540C751DA4F8D
:104ED0003881C95ED540C651DA4F4881CA5ED54097
:104EE000C551DA4F5881CB5ED540B3010E9489513C
:104EF0000C942A1C0E949C52B3010E94304FF60170
:104F000060817181828193810E94748AAB01BC01AE
:104F1000C651DA4F4883CA5ED540C551DA4F58832F
:104F2000CB5ED540C451DA4F6883CC5ED540C751C3
:104F3000DA4F7883C95ED5400E949C52C651DA4F41
:104F40004881CA5ED540C551DA4F5881CB5ED54005
:104F5000B3010E94CE4E0C942A1CD6012D913D9196
:104F60004D915C91C351DA4F2883CD5ED540C75136
:104F7000DA4F3883C95ED540C651DA4F4883CA5EDE
:104F8000D540C551DA4F5883CB5ED5400E949C5224
:104F9000C351DA4F2881CD5ED540C751DA4F3881F1
:104FA000C95ED540C651DA4F4881CA5ED540C55169
:104FB000DA4F5881CB5ED540B3010E94FA4F0C9472
:104FC0002A1C62E070E0C80109950C94321C2F92F3
:104FD0003F924F925F926F927F928F929F92AF9289
:104FE000BF92CF92DF92EF92FF920F931F93CF93D6
:104FF000DF93CDB7DEB7CD51D4400FB6F894DEBF06
:105000000FBECDBF3C018B01DB011A96DC901A97D5
:10501000D7FC49C3FB01858987FD1AC0C35EDB4FFE
:105020000FB6F894DEBF0FBECDBFDF91CF911F91B9
:105030000F91FF90EF90DF90CF90BF90AF909F9037
:105040008F907F906F905F904F903F902F9008953A
:105050005E01F6EAAF1AFCEFBF0A86E8D5011D92A1
:105060008A95E9F7FB0160817181E18D8E2F90E0D7
:1050700095958795959587958370823009F428C416
:10508000833009F02BC448E050E0E295E695E695C0
:10509000E370E23009F41FC4E33009F025C428E0CE
:1050A00030E06B507109641B750B621B730B980128
:1050B000235E3F4F823009F414C4833009F01DC4CD
:1050C00088E090E0820F931F0296E23009F412C448
:1050D000E33009F00CC428E030E0820F931F029601
:1050E0000E94A376CA5FDB4F2883C650D440C95FB5
:1050F000DB4F3883C750D440C85FDB4F4883C8506C
:10510000D440C75FDB4F5883C950D440C65FDB4FE4
:105110006883CA50D440C55FDB4F7883CB50D440FE
:10512000C45FDB4F8883CC50D440C35FDB4F988390
:10513000CD50D440A50167E173E0CE018A5F9B4F5B
:105140000E949F7C882309F4A6C2D5011196CD90B8
:10515000DD90ED90FC9014978BE0F8013D96DE0118
:10516000A550BC4F01900D928A95E1F78BE0FE01AE
:10517000E550FC4FDE01A052BC4F01900D928A9584
:10518000E1F755245394C551DC4F5882CB5ED34090
:10519000C451DC4FC882D982EA82FB82CC5ED34004
:1051A000F8018285882309F4AEC3823009F036CF36
:1051B000F3018081811110C58E010F5F1F4F89E2BD
:1051C000D8011D928A95E9F7F501658170E0C50166
:1051D00006960E94A376CC5CDD4F2883C453D24050
:1051E000CB5CDD4F3883C553D240CA5CDD4F48836A
:1051F000C653D240C95CDD4F5883C753D240C85C08
:10520000DD4F6883C853D240C75CDD4F7883C953F4
:10521000D240C65CDD4F8883CA53D240C55CDD4FA7
:105220009883CB53D240A80167E473E0CE018C5C35
:105230009D4F0E949F7C882309F42DC28981882379
:1052400009F442C58E010E5F1F4FE12CF12C0BC0FB
:10525000FFEFEF1AFF0A0B5F1F4F898190E0E816FE
:10526000F9060CF0DBCE0E949641BC016354764FE8
:10527000C8010E94538F892B59F78BE0FE01E05241
:10528000FC4FDE01A051BC4F01900D928A95E1F7D1
:105290000E949641C051DC4FC880C05FD340CF50C0
:1052A000DC4FD880C15FD340CE50DC4FE880C25F76
:1052B000D340CD50DC4FF880C35FD340CC50DC4F9F
:1052C0000881C45FD340CB50DC4F1881C55FD34009
:1052D000CA50DC4F2881C65FD340C950DC4F3881AB
:1052E000C75FD340C850DC4F4881C85FD340C75028
:1052F000DC4F5881C95FD340C650DC4F6881CA5F1C
:10530000D3400E94D83C8ACE8111EFC3F301F181D2
:10531000CD5EDB4FF883C351D440D3011396BC91CB
:10532000C75EDB4FB883C951D440F301F481C65E38
:10533000DB4FF883CA51D440D30112968C91E82FE9
:10534000F0E0CC5EDB4FF983E883C451D440C65E05
:10535000DB4F2881CA51D44030E040E050E060E0AB
:1053600070E080E090E008E10E9434892901D42EA9
:10537000352EF62EB72FCD5EDB4FF881C351D440CA
:105380004F2AB2648265C05FDB4F8883C051D4402E
:105390009264CF5EDB4F9883C151D440C75EDB4F30
:1053A0002881C951D44030E040E050E060E070E036
:1053B00080E090E000E10E943489C35EDB4F2883E7
:1053C000CD51D440532AD42A352AF62AB72BC05FB0
:1053D000DB4FA881C051D440A82BC05FDB4FA8830E
:1053E000C051D440CF5EDB4FE881C151D440E92B9E
:1053F000CF5EDB4FE883C151D440C052DC4FF8810F
:10540000C05ED340CA5EDB4FF883C651D440CE5154
:10541000DC4FA881C25ED340C55EDB4FA883CB5171
:10542000D440CD51DC4FE881C35ED340C45EDB4F36
:10543000E883CC51D440CF51DC4F8881C15ED3404A
:10544000E82FF0E0C95EDB4FF983E883C751D44011
:10545000C45EDB4F2881CC51D44030E040E050E0C6
:1054600060E070E080E090E008E10E94348959013A
:10547000C42E252EE62EA72FCA5EDB4FF881C6511B
:10548000D440AF2AA2648265CE5EDB4F8883C251CE
:10549000D440192F1264C55EDB4F2881CB51D44014
:1054A00030E040E050E060E070E080E090E000E15B
:1054B0000E943489022FB32AC42A252AE62AA72B60
:1054C000CE5EDB4FE881C251D440E82BCE5EDB4F8D
:1054D000E883C251D440192BCC5EDB4F288139813F
:1054E000C451D440F22FEE279F01C35EDB4FE88109
:1054F000CD51D4404E2A532AC95EDB4F28813981D1
:10550000C751D440F22FEE279F01A02AB32A92015F
:105510004D2D532D6F2D7B2FC05FDB4F8881C051E8
:10552000D440CF5EDB4F9881C151D440D22CFA2EAB
:10553000CE5EDB4F0881C251D4400E946B8939F1A5
:10554000CC5EDB4F28813981C451D440CD5EDB4F26
:10555000A881C351D4403A2BC95EDB4F8881998121
:10556000C751D440CA5EDB4FB881C651D4409B2B93
:105570002817390709F4EFC3B3016F5F7F4FCE01DE
:1055800080529C4F0E94538F892B09F0F3C1F40184
:1055900084819581019709F455C3F30121883288EC
:1055A0008CE8F401DE01A953BD4F01900D928A955C
:1055B000E1F79E012F5F3F4F590182E391E0D9014E
:1055C000FC011D923197E9F7F1E0C855DF4FF883F0
:1055D000C85AD040C953DD4F88819981AA81BB81C7
:1055E000C75CD240C755DF4F88839983AA83BB83AA
:1055F000C95AD040FB83C553DD4F88809980CB5C6E
:10560000D24021E08216910409F4D7C232E0831619
:10561000910409F4BAC2892809F4A1C282E090E099
:105620009D838C8331E03F8F83E090E099A388A332
:10563000AE0140515C4F2A01CE018D5C9E4F3C0172
:105640000E94AD7372018E010D5C1D4F20E031E0B0
:10565000A301BC01C5010E94B073D2018D919C9140
:10566000892BC9F4CD5CDD4F4881C353D24050E053
:10567000D101ED91FC91309709F4D0CCB301D10167
:1056800012968D919C9113970995F20180819181D9
:10569000892B09F4C3CC0E9409314FEF50E060E040
:1056A0000E94EC30BBCC5596CC9048E050E0635F54
:1056B0007F4FCE0180529C4F0E94638F7E01B9E3E1
:1056C000EB1ABDEFFB0A83E9F70111928A95E9F71E
:1056D00095E0FE01E052FC4FD70101900D929A95A2
:1056E000E1F740E84D0D50E060E070E0D70115961D
:1056F0004D935D936D937C9318978C2D90E0A0E073
:10570000B0E0F70181879287A387B487D8016D91B4
:105710007C9111975996EC918E2F90E095958795F5
:10572000959587958370823009F49AC1833009F486
:10573000E7C040E050E0E295E695E695E370E230A0
:1057400009F49AC1E33009F094C128E030E06B50CD
:105750007109641B750B621B730B035E1F4F823054
:1057600009F484C1833009F07EC188E090E0080F1D
:10577000191F0E5F1F4FE23009F46FC1E33009F0CB
:1057800069C188E090E0800F911F02960E94A37685
:10579000C65ADC4F2883CA55D340C55ADC4F3883DC
:1057A000CB55D340C45ADC4F4883CC55D340C35A61
:1057B000DC4F5883CD55D340C25ADC4F6883CE5559
:1057C000D340C15ADC4F7883CF55D340C05ADC4F09
:1057D0008883C056D340CF59DC4F9883C156D340FD
:1057E000A701435F5F4F67E173E0CE01865A9C4F8C
:1057F0000E949F7C882309F44ECFF301C388D4888C
:105800004E01FCEC8F1AFDEF9F0A83E9F701D401EA
:1058100001900D928A95E1F79E012F5F3F4F59014C
:1058200082E391E0D901FC011D923197E9F781E013
:1058300090E09A83898381E0C355DF4F8883CD5AF6
:10584000D040E4E6F4E012E720E030E0A90101C036
:105850001191A5E6B0E00E9415899B01AC01210FD2
:10586000311D411D511D84E0E637F80789F7C25507
:10587000DF4F288339834A835B83CE5AD040C0519F
:10588000DC4F19821882C05FD3400E941289DE016A
:10589000A051BC4F7D018E010E541F4F20E830E017
:1058A000AE014D545F4FBC01C4010E94B073C051A2
:1058B000DC4F88819981C05FD340892B09F4DFC018
:1058C0000E9409314FEF50E06FEF0E94EC30A6CB01
:1058D00042E050E0DACB22E030E0E3CB40E050E0C1
:1058E000D4CB82E090E0EECB20E030E0DACB20E0D9
:1058F00030E0F3CB22E030E0F0CB80E090E0E2CB90
:1059000048E050E018CFD5011596EC90F12C0E949C
:10591000AA73A5014A5F5F4F4E01BCEC8B1ABDEF25
:105920009B0A8E01025F1B4F9701BC01C4010E94BC
:10593000FA73C25FDB4F88819981CE50D440892BA6
:1059400009F0A9CEF3018081811108C0D401149619
:105950008D919C911597892B09F4E6C0D3011C9673
:105960008C911C97C551DC4F9881CB5ED340891731
:1059700009F4CACCD3018C91882331F0F4018481DD
:105980009581892B09F441C1F301A188B288F40102
:1059900080819181A281B3819E012F5F3F4F690178
:1059A00022E331E0F601A901119241505040E1F7A4
:1059B00041E04B8322E030E03D832C834F8F25E094
:1059C00030E039A328A3C855DF4F4883C85AD040D8
:1059D000C755DF4F88839983AA83BB83C95AD040B8
:1059E0000E94AD73DE01A953BD4F7D018E010D5C98
:1059F0001D4F20E031E0AE014D5C5E4FBC01C601A1
:105A00000E94B073C953DD4F88819981C75CD24031
:105A1000892B09F040CECD5CDD4F4881C353D24085
:105A200050E0D501ED91FC91309709F4F7CABE0121
:105A30006D5C7E4FD50112968D919C9113970995BF
:105A4000C953DD4F88819981C75CD240892B09F405
:105A5000E5CA21CE80E090E096CE82E090E093CE41
:105A600042E050E068CE80E090E081CE82E090E0BD
:105A70007ECE20E030E06BCE22E030E068CE0E94A7
:105A8000AD738E010D5C1D4F20E031E0AE014D5C29
:105A90005E4FBC01C5010E94B073C051DC4F8881CC
:105AA0009981C05FD340892B09F00ACFCD5CDD4FCF
:105AB0004881C353D24050E0D601ED91FC9130971C
:105AC00009F4ACCABE016D5C7E4FD60112968D9171
:105AD0009C9113970995C051DC4F88819981C05FD3
